:100000000C9434000C9449000C9449000C94490061
:100010000C9449000C9449000C9449000C9449003C
:100020000C9449000C9449000C9449000C9449002C
:100030000C9449000C9449000C9449000C9449001C
:100040000C9449000C9449000C9449000C9449000C
:100050000C9449000C9449000C9449000C944900FC
:100060000C9449000C94490011241FBECFEFD8E036
:10007000DEBFCDBF11E0A0E0B1E0E4E0F1E002C0FE
:1000800005900D92A630B107D9F70E944B000C9451
:1000900080000C9400001092C50087E68093C40095
:1000A0008091C0008D7F8093C00088E18093C10063
:1000B000259A8091C00085FFFCCF8091C6002D9AC3
:1000C0002FEF89E698E1215080409040E1F700C091
:1000D000000085B115B82FEF89E698E121508040E6
:1000E0009040E1F700C00000E0E0F1E0819188235A
:1000F00001F39091C00095FFFCCF8093C600F6CF2E
:04010000F894FFCFA1
:0601040070696E670A003D
:00000001FF
