:100000000C9434000C9449000C9449000C94490061
:100010000C9449000C9449000C9449000C9449003C
:100020000C9449000C9449000C9449000C9449002C
:100030000C9449000C9449000C9449000C9449001C
:100040000C9449000C9449000C9449000C9449000C
:100050000C9449000C9449000C9449000C944900FC
:100060000C9449000C94490011241FBECFEFD8E036
:10007000DEBFCDBF11E0A0E0B1E0E2E1F1E002C0FF
:1000800005900D92A231B107D9F70E944B000C9454
:1000900087000C9400001092C50087E68093C4008E
:1000A0008091C0008D7F8093C00088E08093C10064
:1000B000259A2D9AE0E0F1E0819181111AC02FEF8D
:1000C00081EE94E0215080409040E1F700C00000B4
:1000D00085B115B8EBE0F1E08191811111C02FEFEE
:1000E00081EE94E0215080409040E1F700C0000094
:1000F000E0CF9091C00095FFFCCF8093C600DCCF8D
:100100009091C00095FFFCCF8093C600E5CFF89496
:02011000FFCF1F
:1001120048656C6C6F206176722000776F726C6438
:020122000000DB
:00000001FF
